{"abi":[{"type":"constructor","inputs":[{"name":"_balancerVault","type":"address","internalType":"address"}],"stateMutability":"nonpayable"},{"type":"receive","stateMutability":"payable"},{"type":"function","name":"balancerVault","inputs":[],"outputs":[{"name":"","type":"address","internalType":"contract IBalancerVault"}],"stateMutability":"view"},{"type":"function","name":"execute","inputs":[{"name":"tokens","type":"address[]","internalType":"address[]"},{"name":"amounts","type":"uint256[]","internalType":"uint256[]"},{"name":"hops","type":"bytes","internalType":"bytes"},{"name":"minProfit","type":"uint256","internalType":"uint256"}],"outputs":[],"stateMutability":"nonpayable"},{"type":"function","name":"owner","inputs":[],"outputs":[{"name":"","type":"address","internalType":"address"}],"stateMutability":"view"},{"type":"function","name":"receiveFlashLoan","inputs":[{"name":"tokens","type":"address[]","internalType":"address[]"},{"name":"amounts","type":"uint256[]","internalType":"uint256[]"},{"name":"feeAmounts","type":"uint256[]","internalType":"uint256[]"},{"name":"userData","type":"bytes","internalType":"bytes"}],"outputs":[],"stateMutability":"nonpayable"},{"type":"function","name":"withdraw","inputs":[{"name":"token","type":"address","internalType":"address"}],"outputs":[],"stateMutability":"nonpayable"},{"type":"function","name":"withdrawETH","inputs":[],"outputs":[],"stateMutability":"nonpayable"},{"type":"event","name":"ArbExecuted","inputs":[{"name":"token","type":"address","indexed":true,"internalType":"address"},{"name":"borrowed","type":"uint256","indexed":false,"internalType":"uint256"},{"name":"profit","type":"uint256","indexed":false,"internalType":"uint256"}],"anonymous":false},{"type":"event","name":"ArbFailed","inputs":[{"name":"reason","type":"string","indexed":false,"internalType":"string"}],"anonymous":false}],"bytecode":{"object":"0x60c060405234801561000f575f5ffd5b50604051612ff5380380612ff5833981810160405281019061003191906100fd565b3373ffffffffffffffffffffffffffffffffffffffff1660808173ffffffffffffffffffffffffffffffffffffffff16815250508073ffffffffffffffffffffffffffffffffffffffff1660a08173ffffffffffffffffffffffffffffffffffffffff168152505050610128565b5f5ffd5b5f73ffffffffffffffffffffffffffffffffffffffff82169050919050565b5f6100cc826100a3565b9050919050565b6100dc816100c2565b81146100e6575f5ffd5b50565b5f815190506100f7816100d3565b92915050565b5f602082840312156101125761011161009f565b5b5f61011f848285016100e9565b91505092915050565b60805160a051612e6d6101885f395f818161014701528181610553015281816105ed01526107f401525f818161016b015281816102980152818161031d01528181610341015281816103d00152818161049a01526109650152612e6d5ff3fe608060405260043610610058575f3560e01c8063158274a51461006357806351cff8d91461008d5780638da5cb5b146100b5578063e086e5ec146100df578063eadadb44146100f5578063f04f27071461011d5761005f565b3661005f57005b5f5ffd5b34801561006e575f5ffd5b50610077610145565b6040516100849190611731565b60405180910390f35b348015610098575f5ffd5b506100b360048036038101906100ae9190611796565b610169565b005b3480156100c0575f5ffd5b506100c961031b565b6040516100d691906117d0565b60405180910390f35b3480156100ea575f5ffd5b506100f361033f565b005b348015610100575f5ffd5b5061011b60048036038101906101169190611927565b610498565b005b348015610128575f5ffd5b50610143600480360381019061013e9190611ca3565b6105eb565b005b7f000000000000000000000000000000000000000000000000000000000000000081565b7f000000000000000000000000000000000000000000000000000000000000000073ffffffffffffffffffffffffffffffffffffffff163373ffffffffffffffffffffffffffffffffffffffff16146101f7576040517f08c379a00000000000000000000000000000000000000000000000000000000081526004016101ee90611dd1565b60405180910390fd5b5f8173ffffffffffffffffffffffffffffffffffffffff166370a08231306040518263ffffffff1660e01b815260040161023191906117d0565b602060405180830381865afa15801561024c573d5f5f3e3d5ffd5b505050506040513d601f19601f820116820180604052508101906102709190611e03565b90505f811115610317578173ffffffffffffffffffffffffffffffffffffffff1663a9059cbb7f0000000000000000000000000000000000000000000000000000000000000000836040518363ffffffff1660e01b81526004016102d5929190611e3d565b6020604051808303815f875af11580156102f1573d5f5f3e3d5ffd5b505050506040513d601f19601f820116820180604052508101906103159190611e99565b505b5050565b7f000000000000000000000000000000000000000000000000000000000000000081565b7f000000000000000000000000000000000000000000000000000000000000000073ffffffffffffffffffffffffffffffffffffffff163373ffffffffffffffffffffffffffffffffffffffff16146103cd576040517f08c379a00000000000000000000000000000000000000000000000000000000081526004016103c490611dd1565b60405180910390fd5b5f7f000000000000000000000000000000000000000000000000000000000000000073ffffffffffffffffffffffffffffffffffffffff164760405161041290611ef1565b5f6040518083038185875af1925050503d805f811461044c576040519150601f19603f3d011682016040523d82523d5f602084013e610451565b606091505b5050905080610495576040517f08c379a000000000000000000000000000000000000000000000000000000000815260040161048c90611f4f565b60405180910390fd5b50565b7f000000000000000000000000000000000000000000000000000000000000000073ffffffffffffffffffffffffffffffffffffffff163373ffffffffffffffffffffffffffffffffffffffff1614610526576040517f08c379a000000000000000000000000000000000000000000000000000000000815260040161051d90611dd1565b60405180910390fd5b5f8585858585604051602001610540959493929190612021565b60405160208183030381529060405290507f000000000000000000000000000000000000000000000000000000000000000073ffffffffffffffffffffffffffffffffffffffff16635c38449e308a8a8a8a876040518763ffffffff1660e01b81526004016105b496959493929190612174565b5f604051808303815f87803b1580156105cb575f5ffd5b505af11580156105dd573d5f5f3e3d5ffd5b505050505050505050505050565b7f000000000000000000000000000000000000000000000000000000000000000073ffffffffffffffffffffffffffffffffffffffff163373ffffffffffffffffffffffffffffffffffffffff1614610679576040517f08c379a00000000000000000000000000000000000000000000000000000000081526004016106709061221a565b60405180910390fd5b5f5f5f83806020019051810190610690919061233b565b9250925092505f828060200190518101906106ab9190612651565b90505f845f815181106106c1576106c0612698565b5b602002602001015190505f895f815181106106df576106de612698565b5b602002602001015190505f6106f48484610a5c565b90508061076b577f18bb639ef42bc623aa2c2d8f6edf77e01d9e41f6253eb4e107f186d4594669d16040516107289061270f565b60405180910390a16040517f08c379a000000000000000000000000000000000000000000000000000000000815260040161076290612777565b60405180910390fd5b5f5f90505b8b51811015610880575f8a828151811061078d5761078c612698565b5b60200260200101518c83815181106107a8576107a7612698565b5b60200260200101516107ba91906127c2565b90508c82815181106107cf576107ce612698565b5b602002602001015173ffffffffffffffffffffffffffffffffffffffff1663a9059cbb7f0000000000000000000000000000000000000000000000000000000000000000836040518363ffffffff1660e01b8152600401610831929190611e3d565b6020604051808303815f875af115801561084d573d5f5f3e3d5ffd5b505050506040513d601f19601f820116820180604052508101906108719190611e99565b50508080600101915050610770565b505f8273ffffffffffffffffffffffffffffffffffffffff166370a08231306040518263ffffffff1660e01b81526004016108bb91906117d0565b602060405180830381865afa1580156108d6573d5f5f3e3d5ffd5b505050506040513d601f19601f820116820180604052508101906108fa9190611e03565b90508581101561093f576040517f08c379a00000000000000000000000000000000000000000000000000000000081526004016109369061283f565b60405180910390fd5b5f811115610a4e578273ffffffffffffffffffffffffffffffffffffffff1663a9059cbb7f0000000000000000000000000000000000000000000000000000000000000000836040518363ffffffff1660e01b81526004016109a2929190611e3d565b6020604051808303815f875af11580156109be573d5f5f3e3d5ffd5b505050506040513d601f19601f820116820180604052508101906109e29190611e99565b508273ffffffffffffffffffffffffffffffffffffffff167f57e239d2525ac69392c47e02c0379fa1ff49ac0fd3a3c6692a7fdcb2cadbfe83895f81518110610a2e57610a2d612698565b5b602002602001015183604051610a4592919061285d565b60405180910390a25b505050505050505050505050565b5f5f8290505f5f90505b8451811015610b73575f858281518110610a8357610a82612698565b5b602002602001015190505f600160ff16825f015160ff1603610ab057610aa98285610b80565b9050610b49565b600260ff16825f015160ff1603610ad257610acb8285610d46565b9050610b48565b600360ff16825f015160ff1603610af457610aed8285610e6c565b9050610b47565b600460ff16825f015160ff1603610b1657610b0f8285611022565b9050610b46565b600560ff16825f015160ff1603610b3857610b318285611221565b9050610b45565b610b42828561146d565b90505b5b5b5b5b8160a00151811015610b61575f945050505050610b7a565b80935050508080600101915050610a66565b5060019150505b92915050565b5f826040015173ffffffffffffffffffffffffffffffffffffffff1663095ea7b38460200151846040518363ffffffff1660e01b8152600401610bc4929190611e3d565b6020604051808303815f875af1158015610be0573d5f5f3e3d5ffd5b505050506040513d601f19601f82011682018060405250810190610c049190611e99565b50826020015173ffffffffffffffffffffffffffffffffffffffff1663414bf389604051806101000160405280866040015173ffffffffffffffffffffffffffffffffffffffff168152602001866060015173ffffffffffffffffffffffffffffffffffffffff168152602001866080015162ffffff1681526020013073ffffffffffffffffffffffffffffffffffffffff168152602001603c42610ca991906127c2565b81526020018581526020018660a0015181526020015f73ffffffffffffffffffffffffffffffffffffffff168152506040518263ffffffff1660e01b8152600401610cf49190612951565b6020604051808303815f875af1925050508015610d2f57506040513d601f19601f82011682018060405250810190610d2c9190611e03565b60015b610d3b575f9050610d40565b809150505b92915050565b5f826040015173ffffffffffffffffffffffffffffffffffffffff1663095ea7b38460200151846040518363ffffffff1660e01b8152600401610d8a929190611e3d565b6020604051808303815f875af1158015610da6573d5f5f3e3d5ffd5b505050506040513d601f19601f82011682018060405250810190610dca9190611e99565b50826020015173ffffffffffffffffffffffffffffffffffffffff16633df021248460c001518560e00151858760a001516040518563ffffffff1660e01b8152600401610e1a949392919061297a565b6020604051808303815f875af1925050508015610e5557506040513d601f19601f82011682018060405250810190610e529190611e03565b60015b610e61575f9050610e66565b809150505b92915050565b5f826040015173ffffffffffffffffffffffffffffffffffffffff1663095ea7b38460200151846040518363ffffffff1660e01b8152600401610eb0929190611e3d565b6020604051808303815f875af1158015610ecc573d5f5f3e3d5ffd5b505050506040513d601f19601f82011682018060405250810190610ef09190611e99565b50826020015173ffffffffffffffffffffffffffffffffffffffff1663bc6511886040518060e00160405280866040015173ffffffffffffffffffffffffffffffffffffffff168152602001866060015173ffffffffffffffffffffffffffffffffffffffff1681526020013073ffffffffffffffffffffffffffffffffffffffff168152602001603c42610f8591906127c2565b81526020018581526020018660a0015181526020015f73ffffffffffffffffffffffffffffffffffffffff168152506040518263ffffffff1660e01b8152600401610fd09190612a49565b6020604051808303815f875af192505050801561100b57506040513d601f19601f820116820180604052508101906110089190611e03565b60015b611017575f905061101c565b809150505b92915050565b5f826040015173ffffffffffffffffffffffffffffffffffffffff1663095ea7b38460200151846040518363ffffffff1660e01b8152600401611066929190611e3d565b6020604051808303815f875af1158015611082573d5f5f3e3d5ffd5b505050506040513d601f19601f820116820180604052508101906110a69190611e99565b50826020015173ffffffffffffffffffffffffffffffffffffffff166352bbbe296040518060c0016040528086610100015181526020015f60018111156110f0576110ef612a62565b5b8152602001866040015173ffffffffffffffffffffffffffffffffffffffff168152602001866060015173ffffffffffffffffffffffffffffffffffffffff16815260200185815260200160405180602001604052805f81525081525060405180608001604052803073ffffffffffffffffffffffffffffffffffffffff1681526020015f151581526020013073ffffffffffffffffffffffffffffffffffffffff1681526020015f15158152508660a00151603c426111b091906127c2565b6040518563ffffffff1660e01b81526004016111cf9493929190612c34565b6020604051808303815f875af192505050801561120a57506040513d601f19601f820116820180604052508101906112079190611e03565b60015b611216575f905061121b565b809150505b92915050565b5f826040015173ffffffffffffffffffffffffffffffffffffffff1663095ea7b38460200151846040518363ffffffff1660e01b8152600401611265929190611e3d565b6020604051808303815f875af1158015611281573d5f5f3e3d5ffd5b505050506040513d601f19601f820116820180604052508101906112a59190611e99565b505f600267ffffffffffffffff8111156112c2576112c16119fb565b5b6040519080825280602002602001820160405280156112f05781602001602082028036833780820191505090505b5090508360400151815f8151811061130b5761130a612698565b5b602002602001019073ffffffffffffffffffffffffffffffffffffffff16908173ffffffffffffffffffffffffffffffffffffffff168152505083606001518160018151811061135e5761135d612698565b5b602002602001019073ffffffffffffffffffffffffffffffffffffffff16908173ffffffffffffffffffffffffffffffffffffffff1681525050836020015173ffffffffffffffffffffffffffffffffffffffff166392ebcc0e848660a0015184305f603c426113ce91906127c2565b6040518763ffffffff1660e01b81526004016113ef96959493929190612cff565b5f604051808303815f875af192505050801561142d57506040513d5f823e3d601f19601f8201168201806040525081019061142a9190612d65565b60015b61143a575f915050611467565b80600182516114499190612dac565b8151811061145a57611459612698565b5b6020026020010151925050505b92915050565b5f826040015173ffffffffffffffffffffffffffffffffffffffff1663095ea7b38460200151846040518363ffffffff1660e01b81526004016114b1929190611e3d565b6020604051808303815f875af11580156114cd573d5f5f3e3d5ffd5b505050506040513d601f19601f820116820180604052508101906114f19190611e99565b505f600267ffffffffffffffff81111561150e5761150d6119fb565b5b60405190808252806020026020018201604052801561153c5781602001602082028036833780820191505090505b5090508360400151815f8151811061155757611556612698565b5b602002602001019073ffffffffffffffffffffffffffffffffffffffff16908173ffffffffffffffffffffffffffffffffffffffff16815250508360600151816001815181106115aa576115a9612698565b5b602002602001019073ffffffffffffffffffffffffffffffffffffffff16908173ffffffffffffffffffffffffffffffffffffffff1681525050836020015173ffffffffffffffffffffffffffffffffffffffff166338ed1739848660a001518430603c4261161991906127c2565b6040518663ffffffff1660e01b8152600401611639959493929190612ddf565b5f604051808303815f875af192505050801561167757506040513d5f823e3d601f19601f820116820180604052508101906116749190612d65565b60015b611684575f9150506116b1565b80600182516116939190612dac565b815181106116a4576116a3612698565b5b6020026020010151925050505b92915050565b5f73ffffffffffffffffffffffffffffffffffffffff82169050919050565b5f819050919050565b5f6116f96116f46116ef846116b7565b6116d6565b6116b7565b9050919050565b5f61170a826116df565b9050919050565b5f61171b82611700565b9050919050565b61172b81611711565b82525050565b5f6020820190506117445f830184611722565b92915050565b5f604051905090565b5f5ffd5b5f5ffd5b5f611765826116b7565b9050919050565b6117758161175b565b811461177f575f5ffd5b50565b5f813590506117908161176c565b92915050565b5f602082840312156117ab576117aa611753565b5b5f6117b884828501611782565b91505092915050565b6117ca8161175b565b82525050565b5f6020820190506117e35f8301846117c1565b92915050565b5f5ffd5b5f5ffd5b5f5ffd5b5f5f83601f84011261180a576118096117e9565b5b8235905067ffffffffffffffff811115611827576118266117ed565b5b602083019150836020820283011115611843576118426117f1565b5b9250929050565b5f5f83601f84011261185f5761185e6117e9565b5b8235905067ffffffffffffffff81111561187c5761187b6117ed565b5b602083019150836020820283011115611898576118976117f1565b5b9250929050565b5f5f83601f8401126118b4576118b36117e9565b5b8235905067ffffffffffffffff8111156118d1576118d06117ed565b5b6020830191508360018202830111156118ed576118ec6117f1565b5b9250929050565b5f819050919050565b611906816118f4565b8114611910575f5ffd5b50565b5f81359050611921816118fd565b92915050565b5f5f5f5f5f5f5f6080888a03121561194257611941611753565b5b5f88013567ffffffffffffffff81111561195f5761195e611757565b5b61196b8a828b016117f5565b9750975050602088013567ffffffffffffffff81111561198e5761198d611757565b5b61199a8a828b0161184a565b9550955050604088013567ffffffffffffffff8111156119bd576119bc611757565b5b6119c98a828b0161189f565b935093505060606119dc8a828b01611913565b91505092959891949750929550565b5f601f19601f8301169050919050565b7f4e487b71000000000000000000000000000000000000000000000000000000005f52604160045260245ffd5b611a31826119eb565b810181811067ffffffffffffffff82111715611a5057611a4f6119fb565b5b80604052505050565b5f611a6261174a565b9050611a6e8282611a28565b919050565b5f67ffffffffffffffff821115611a8d57611a8c6119fb565b5b602082029050602081019050919050565b5f611ab0611aab84611a73565b611a59565b90508083825260208201905060208402830185811115611ad357611ad26117f1565b5b835b81811015611afc5780611ae88882611782565b845260208401935050602081019050611ad5565b5050509392505050565b5f82601f830112611b1a57611b196117e9565b5b8135611b2a848260208601611a9e565b91505092915050565b5f67ffffffffffffffff821115611b4d57611b4c6119fb565b5b602082029050602081019050919050565b5f611b70611b6b84611b33565b611a59565b90508083825260208201905060208402830185811115611b9357611b926117f1565b5b835b81811015611bbc5780611ba88882611913565b845260208401935050602081019050611b95565b5050509392505050565b5f82601f830112611bda57611bd96117e9565b5b8135611bea848260208601611b5e565b91505092915050565b5f5ffd5b5f67ffffffffffffffff821115611c1157611c106119fb565b5b611c1a826119eb565b9050602081019050919050565b828183375f83830152505050565b5f611c47611c4284611bf7565b611a59565b905082815260208101848484011115611c6357611c62611bf3565b5b611c6e848285611c27565b509392505050565b5f82601f830112611c8a57611c896117e9565b5b8135611c9a848260208601611c35565b91505092915050565b5f5f5f5f60808587031215611cbb57611cba611753565b5b5f85013567ffffffffffffffff811115611cd857611cd7611757565b5b611ce487828801611b06565b945050602085013567ffffffffffffffff811115611d0557611d04611757565b5b611d1187828801611bc6565b935050604085013567ffffffffffffffff811115611d3257611d31611757565b5b611d3e87828801611bc6565b925050606085013567ffffffffffffffff811115611d5f57611d5e611757565b5b611d6b87828801611c76565b91505092959194509250565b5f82825260208201905092915050565b7f6e6f74206f776e657200000000000000000000000000000000000000000000005f82015250565b5f611dbb600983611d77565b9150611dc682611d87565b602082019050919050565b5f6020820190508181035f830152611de881611daf565b9050919050565b5f81519050611dfd816118fd565b92915050565b5f60208284031215611e1857611e17611753565b5b5f611e2584828501611def565b91505092915050565b611e37816118f4565b82525050565b5f604082019050611e505f8301856117c1565b611e5d6020830184611e2e565b9392505050565b5f8115159050919050565b611e7881611e64565b8114611e82575f5ffd5b50565b5f81519050611e9381611e6f565b92915050565b5f60208284031215611eae57611ead611753565b5b5f611ebb84828501611e85565b91505092915050565b5f81905092915050565b50565b5f611edc5f83611ec4565b9150611ee782611ece565b5f82019050919050565b5f611efb82611ed1565b9150819050919050565b7f455448207472616e73666572206661696c6564000000000000000000000000005f82015250565b5f611f39601383611d77565b9150611f4482611f05565b602082019050919050565b5f6020820190508181035f830152611f6681611f2d565b9050919050565b5f82825260208201905092915050565b5f5ffd5b82818337505050565b5f611f958385611f6d565b93507f07ffffffffffffffffffffffffffffffffffffffffffffffffffffffffffffff831115611fc857611fc7611f7d565b5b602083029250611fd9838584611f81565b82840190509392505050565b5f82825260208201905092915050565b5f6120008385611fe5565b935061200d838584611c27565b612016836119eb565b840190509392505050565b5f6060820190508181035f83015261203a818789611f8a565b9050818103602083015261204f818587611ff5565b905061205e6040830184611e2e565b9695505050505050565b5f82825260208201905092915050565b5f819050919050565b61208a8161175b565b82525050565b5f61209b8383612081565b60208301905092915050565b5f6120b56020840184611782565b905092915050565b5f602082019050919050565b5f6120d48385612068565b93506120df82612078565b805f5b85811015612117576120f482846120a7565b6120fe8882612090565b9750612109836120bd565b9250506001810190506120e2565b5085925050509392505050565b5f81519050919050565b8281835e5f83830152505050565b5f61214682612124565b6121508185611fe5565b935061216081856020860161212e565b612169816119eb565b840191505092915050565b5f6080820190506121875f8301896117c1565b818103602083015261219a8187896120c9565b905081810360408301526121af818587611f8a565b905081810360608301526121c3818461213c565b9050979650505050505050565b7f756e617574686f72697a656400000000000000000000000000000000000000005f82015250565b5f612204600c83611d77565b915061220f826121d0565b602082019050919050565b5f6020820190508181035f830152612231816121f8565b9050919050565b5f61224a61224584611b33565b611a59565b9050808382526020820190506020840283018581111561226d5761226c6117f1565b5b835b8181101561229657806122828882611def565b84526020840193505060208101905061226f565b5050509392505050565b5f82601f8301126122b4576122b36117e9565b5b81516122c4848260208601612238565b91505092915050565b5f6122df6122da84611bf7565b611a59565b9050828152602081018484840111156122fb576122fa611bf3565b5b61230684828561212e565b509392505050565b5f82601f830112612322576123216117e9565b5b81516123328482602086016122cd565b91505092915050565b5f5f5f6060848603121561235257612351611753565b5b5f84015167ffffffffffffffff81111561236f5761236e611757565b5b61237b868287016122a0565b935050602084015167ffffffffffffffff81111561239c5761239b611757565b5b6123a88682870161230e565b92505060406123b986828701611def565b9150509250925092565b5f67ffffffffffffffff8211156123dd576123dc6119fb565b5b602082029050602081019050919050565b5f5ffd5b5f60ff82169050919050565b612407816123f2565b8114612411575f5ffd5b50565b5f81519050612422816123fe565b92915050565b5f815190506124368161176c565b92915050565b5f62ffffff82169050919050565b6124538161243c565b811461245d575f5ffd5b50565b5f8151905061246e8161244a565b92915050565b5f81600f0b9050919050565b61248981612474565b8114612493575f5ffd5b50565b5f815190506124a481612480565b92915050565b5f819050919050565b6124bc816124aa565b81146124c6575f5ffd5b50565b5f815190506124d7816124b3565b92915050565b5f61012082840312156124f3576124f26123ee565b5b6124fe610120611a59565b90505f61250d84828501612414565b5f83015250602061252084828501612428565b602083015250604061253484828501612428565b604083015250606061254884828501612428565b606083015250608061255c84828501612460565b60808301525060a061257084828501611def565b60a08301525060c061258484828501612496565b60c08301525060e061259884828501612496565b60e0830152506101006125ad848285016124c9565b6101008301525092915050565b5f6125cc6125c7846123c3565b611a59565b90508083825260208201905061012084028301858111156125f0576125ef6117f1565b5b835b8181101561261a578061260588826124dd565b845260208401935050610120810190506125f2565b5050509392505050565b5f82601f830112612638576126376117e9565b5b81516126488482602086016125ba565b91505092915050565b5f6020828403121561266657612665611753565b5b5f82015167ffffffffffffffff81111561268357612682611757565b5b61268f84828501612624565b91505092915050565b7f4e487b71000000000000000000000000000000000000000000000000000000005f52603260045260245ffd5b7f737761702070617468206661696c6564000000000000000000000000000000005f82015250565b5f6126f9601083611d77565b9150612704826126c5565b602082019050919050565b5f6020820190508181035f830152612726816126ed565b9050919050565b7f617262206661696c6564000000000000000000000000000000000000000000005f82015250565b5f612761600a83611d77565b915061276c8261272d565b602082019050919050565b5f6020820190508181035f83015261278e81612755565b9050919050565b7f4e487b71000000000000000000000000000000000000000000000000000000005f52601160045260245ffd5b5f6127cc826118f4565b91506127d7836118f4565b92508282019050808211156127ef576127ee612795565b5b92915050565b7f70726f6669742062656c6f77206d696e696d756d0000000000000000000000005f82015250565b5f612829601483611d77565b9150612834826127f5565b602082019050919050565b5f6020820190508181035f8301526128568161281d565b9050919050565b5f6040820190506128705f830185611e2e565b61287d6020830184611e2e565b9392505050565b61288d8161243c565b82525050565b61289c816118f4565b82525050565b6128ab816116b7565b82525050565b61010082015f8201516128c65f850182612081565b5060208201516128d96020850182612081565b5060408201516128ec6040850182612884565b5060608201516128ff6060850182612081565b5060808201516129126080850182612893565b5060a082015161292560a0850182612893565b5060c082015161293860c0850182612893565b5060e082015161294b60e08501826128a2565b50505050565b5f610100820190506129655f8301846128b1565b92915050565b61297481612474565b82525050565b5f60808201905061298d5f83018761296b565b61299a602083018661296b565b6129a76040830185611e2e565b6129b46060830184611e2e565b95945050505050565b60e082015f8201516129d15f850182612081565b5060208201516129e46020850182612081565b5060408201516129f76040850182612081565b506060820151612a0a6060850182612893565b506080820151612a1d6080850182612893565b5060a0820151612a3060a0850182612893565b5060c0820151612a4360c08501826128a2565b50505050565b5f60e082019050612a5c5f8301846129bd565b92915050565b7f4e487b71000000000000000000000000000000000000000000000000000000005f52602160045260245ffd5b612a98816124aa565b82525050565b60028110612aaf57612aae612a62565b5b50565b5f819050612abf82612a9e565b919050565b5f612ace82612ab2565b9050919050565b612ade81612ac4565b82525050565b5f82825260208201905092915050565b5f612afe82612124565b612b088185612ae4565b9350612b1881856020860161212e565b612b21816119eb565b840191505092915050565b5f60c083015f830151612b415f860182612a8f565b506020830151612b546020860182612ad5565b506040830151612b676040860182612081565b506060830151612b7a6060860182612081565b506080830151612b8d6080860182612893565b5060a083015184820360a0860152612ba58282612af4565b9150508091505092915050565b612bbb81611e64565b82525050565b5f612bcb826116b7565b9050919050565b612bdb81612bc1565b82525050565b608082015f820151612bf55f850182612081565b506020820151612c086020850182612bb2565b506040820151612c1b6040850182612bd2565b506060820151612c2e6060850182612bb2565b50505050565b5f60e0820190508181035f830152612c4c8187612b2c565b9050612c5b6020830186612be1565b612c6860a0830185611e2e565b612c7560c0830184611e2e565b95945050505050565b5f81519050919050565b5f819050602082019050919050565b5f602082019050919050565b5f612cad82612c7e565b612cb78185612068565b9350612cc283612c88565b805f5b83811015612cf2578151612cd98882612090565b9750612ce483612c97565b925050600181019050612cc5565b5085935050505092915050565b5f60c082019050612d125f830189611e2e565b612d1f6020830188611e2e565b8181036040830152612d318187612ca3565b9050612d4060608301866117c1565b612d4d60808301856117c1565b612d5a60a0830184611e2e565b979650505050505050565b5f60208284031215612d7a57612d79611753565b5b5f82015167ffffffffffffffff811115612d9757612d96611757565b5b612da3848285016122a0565b91505092915050565b5f612db6826118f4565b9150612dc1836118f4565b9250828203905081811115612dd957612dd8612795565b5b92915050565b5f60a082019050612df25f830188611e2e565b612dff6020830187611e2e565b8181036040830152612e118186612ca3565b9050612e2060608301856117c1565b612e2d6080830184611e2e565b969550505050505056fea26469706673582212201d46a3e95c6e7f57fe618736fcc22e98c46b673ae11afa88e927cde679cc505364736f6c63430008210033","linkReferences":{}},"methodIdentifiers":{"balancerVault()":"158274a5","execute(address[],uint256[],bytes,uint256)":"eadadb44","owner()":"8da5cb5b","receiveFlashLoan(address[],uint256[],uint256[],bytes)":"f04f2707","withdraw(address)":"51cff8d9","withdrawETH()":"e086e5ec"},"id":0}